:100000000C943B010C946C010C946C010C946C01ED
:100010000C946C010C946C010C946C010C946C01AC
:100020000C946C010C946C010C946C010C946C019C
:100030000C946C010C946C010C946C010C946C018C
:100040000C946C010C946C010C946C010C946C017C
:100050000C946C010C946C010C946C010C94A00732
:100060000C946C010C9414080C94EA070C946C0129
:100070000C946C010C946C010C946C010C946C014C
:100080000C946C010C946C010C946C010C946C013C
:100090000C946C010C946C010C946C010C946C012C
:1000A0000C946C010C946C010C946C010C946C011C
:1000B0000C946C010C946C010C946C010C946C010C
:1000C0000C946C010C946C010C946C010C946C01FC
:1000D0000C946C010C946C010C946C010C946C01EC
:1000E0000C946C010C94DB010C9402020C942C0215
:1000F0000C9406020C944A080C94F9010C94220208
:100100000C94D6010C940C020C94FE040C94ED019A
:100110000C9410020C94FD040C945F040C94AC0439
:100120000C94F6030C941E020C9414020C94F5012A
:100130000C9405040C94FC010C9428020C949A076E
:100140000C941A020C9427040C94F1010C94C9032A
:100150000C94190400002100240027002A002D001F
:100160003000330001010000040107010A01000012
:100170002200250028002B002E003100340002014F
:100180000000050108010B0100000A0B02090C0D1B
:100190000E0807030401000000000000000000003A
:1001A000000000000000000000000000000000004F
:1001B000000000001211100000000000000000000C
:1001C000000000000000000000000000000000002F
:1001D00020002300260029002C002F0032000001FF
:1001E00000000301060109010505050507050808CA
:1001F0000808020202020A0A0808040404040101B1
:1002000001010101010103030303030303030407C5
:1002100007070C0C0C0C0C0C0C0C0202020206065C
:100220000606060606060B0B0B0B0B0B0B0B01024F
:1002300010202008081020401020408002010201F8
:1002400008040201010204081020408080402010B0
:100250000804020180040201804020100804020109
:100260000804020101020408102040800102040871
:10027000102040804A0811241FBECFEFD1E2DEBF1C
:10028000CDBF00E00CBF12E0A0E0B2E0E4E5FAE18F
:1002900000E00BBF02C007900D92A837B107D9F755
:1002A00023E0A8E7B2E001C01D92A934B207E1F74C
:1002B00011E0CBE3D1E000E006C021970109802FD7
:1002C000FE010E94200DCA33D10780E00807A9F77C
:1002D0000E94B5080C94280D0C940000CF92DF9278
:1002E000EF92FF92CF93DF93B0912503A0E08111AD
:1002F000AB2F8091260390E0880F991FAC014253E9
:100300005E4FC0902B03D0902C03E0902D03F09013
:100310002E0330E020E0FA01C591D491E881B901C3
:1003200090E080E0EB23EA130AC02F5F3F4F6C158B
:100330007D058E059F0578F36FEF7FEFCB01DF9191
:10034000CF91FF90EF90DF90CF900895282F30E06D
:10035000F901E857FE4F9491F901E25DFD4F449198
:1003600028513E4FF9012491222309F435C09923E5
:1003700011F191509231F8F4E92FF0E08827EC5315
:10038000FE4F8F4F0C94200DF501F901D601ED01C0
:10039000F101DB01FC01020206020C021002140250
:1003A0001A021E02DB01220228022C028091800028
:1003B0008F7780938000E22FF0E0EE0FFF1FE2596D
:1003C000FE4FA591B4918FB7F894EC91611148C09C
:1003D00040954E234C938FBF0895809180008F7D70
:1003E000E8CF80918000877FE4CF84B58F7784BD8C
:1003F000E2CF84B58F7DFBCF8091B0008F77809363
:10040000B000D9CF8091B0008F7DF9CF809190005E
:100410008F7780939000CFCF809190008F7DF9CF20
:1004200080919000877FF5CF8091A0008F77809397
:10043000A000C1CF8091A0008F7DF9CF8091A00056
:10044000877FF5CF809120018F7780932001B3CFF4
:10045000809120018F7DF9CF80912001877FF5CF9A
:100460004E2BB8CFCF93DF9390E0FC01E25DFD4FC0
:10047000249188519E4FFC0184918823D1F090E013
:10048000880F991FFC01EC5AFE4FA591B491FC0115
:10049000E259FE4FC591D491623071F49FB7F89440
:1004A0003C91822F809583238C93E8812E2B288387
:1004B0009FBFDF91CF9108958FB7F894EC912E2BC9
:1004C0002C938FBFF6CF3FB7F8948091790290912B
:1004D0007A02A0917B02B0917C0226B5A89B05C050
:1004E0002F3F19F00196A11DB11D3FBFBA2FA92FB3
:1004F000982F8827BC01CD01620F711D811D911DB0
:1005000042E0660F771F881F991F4A95D1F708951B
:100510008F929F92AF92BF92CF92DF92EF92FF9213
:100520004B015C010E9463026B017C010E9463022B
:100530006C197D098E099F09683E734081059105FC
:10054000A8F321E0821A9108A108B10888EEC80E2C
:1005500083E0D81EE11CF11C81149104A104B104B4
:1005600029F7FF90EF90DF90CF90BF90AF909F90D2
:100570008F900895CF92DF92EF92FF920F931F9387
:10058000CF93DF93CDB7DEB7C054D1400FB6F89408
:10059000DEBF0FBECDBF2FB7F89480917D02909142
:1005A0007E02A0917F02B09180022FBF409127036D
:1005B000509128036091290370912A038C019D01B9
:1005C000041B150B260B370BB901A801403D574002
:1005D0006105710590F480912F03C05CDE4F0FB66A
:1005E000F894DEBF0FBECDBFDF91CF911F910F9169
:1005F000FF90EF90DF90CF90089580932703909322
:100600002803A0932903B0932A0310922203109287
:1006100021031092200310921F0310921E0362E028
:10062000809123030E94320261E070E080E090E05C
:100630000E94880261E0809123030E94320260E000
:10064000809123030E94A60180912403855182306A
:1006500020F58BE291E10197F1F762E080912303AD
:100660000E9432028091300390E08230910538F090
:10067000880F991F880F991F05970197F1F7F89434
:1006800080E00E946E016F3F7F4F8F4F9F4F61F45C
:1006900010922F03789480E0A0CF64E170E080E0B6
:1006A00090E00E948802D9CF81E00E946E016F3FE6
:1006B0007F4F8F4F9F4F61F38E010F5F1F4F6E0172
:1006C0008FEBC81A8EEFD80A780180E00E946E0185
:1006D000F701608371838283938381E00E946E01BE
:1006E000F7016483758386839783F8E0EF0EF11C2E
:1006F000EC14FD0451F7789430E020E0F801C0805C
:10070000D180E280F3804481558166817781FFEF5B
:10071000CF16DF06EF06FF0631F04F3F8FEF580789
:100720006807780719F410922F03B5CFF90183E019
:10073000F595E7958A95E1F7E25EFC4F8081880F99
:10074000C416D506E606F70610F180832F5F3F4FEB
:10075000085F1F4F2832310589F64091220320910E
:100760001E0380911F03280F3327331F809120031E
:10077000280F311D80912103820F932F911D9927FE
:100780004817190681F681E080932F0326CF8160F8
:10079000DCCFAF92BF92CF92DF92EF92FF920F9396
:1007A0001F93CF93DF936C017B018B01040F151F07
:1007B000EB015E01AE18BF08C017D10759F069916F
:1007C000D601ED91FC910190F081E02DC6011995C3
:1007D000892B79F7C501DF91CF911F910F91FF9080
:1007E000EF90DF90CF90BF90AF900895FC01538DB4
:1007F000448D252F30E0842F90E0821B930B5417FB
:1008000010F0CF96089501970895FC01918D828D87
:10081000981761F0A28DAE0FBF2FB11D5D968C9120
:10082000928D9F5F9F73928F90E008958FEF9FEF5F
:100830000895FC01918D828D981731F0828DE80F1B
:10084000F11D858D90E008958FEF9FEF0895FC01D5
:10085000918D228D892F90E0805C9F4F821B9109A2
:100860008F739927089581E892E00E94270421E080
:10087000892B09F420E0822F0895FC01A48DA80F94
:10088000B92FB11DA35ABF4F2C91848D90E00196D2
:100890008F739927848FA689B7892C93A089B189F2
:1008A0008C91837080648C93938D848D981306C093
:1008B0000288F389E02D80818F7D80830895EF92F7
:1008C000FF920F931F93CF93DF93EC0181E0888F0A
:1008D0009B8D8C8D98131AC0E889F989808185FFDA
:1008E00015C09FB7F894EE89FF896083E889F9897C
:1008F00080818370806480839FBF81E090E0DF917E
:10090000CF911F910F91FF90EF900895F62E0B8DD0
:1009100010E00F5F1F4F0F731127E02E8C8D8E118B
:100920000CC00FB607FCFACFE889F989808185FFF2
:10093000F5CFCE010E943D04F1CFEB8DEC0FFD2FE2
:10094000F11DE35AFF4FF0829FB7F8940B8FEA89AD
:10095000FB8980818062CFCFCF93DF93EC01888DBC
:100960008823B9F0AA89BB89E889F9898C9185FD2A
:1009700003C0808186FD0DC00FB607FCF7CF8C91B8
:1009800085FFF2CF808185FFEDCFCE010E943D042F
:10099000E9CFDF91CF91089580E090E0892B29F095
:1009A0000E94330481110E94000080E090E0892BB6
:1009B00049F080E090E0892B29F00E94000081112D
:1009C0000E94000080E090E0892B49F080E090E0F8
:1009D000892B29F00E94000081110E94000080E014
:1009E00090E0892B49F080E090E0892B29F00E946B
:1009F000000081110C9400000895089590E080E0BB
:100A00000895FB0101900020E9F73197AF01461BE3
:100A1000570BDC01ED91FC910280F381E02D1994DC
:100A20008F929F92AF92BF92EF92FF920F931F937C
:100A3000CF93DF93CDB7DEB7A1970FB6F894DEBFA3
:100A40000FBECDBF7C01FA01CB0119A2223008F400
:100A50002AE08E010F5D1F4F822E912CB12CA12C0C
:100A6000BF01A50194010E94FE0CF901CA016A3080
:100A70000CF5605DD8016E938D01232B242B252B63
:100A800079F790E080E0109721F0BD01C7010E9446
:100A90000105A1960FB6F894DEBF0FBECDBFDF9162
:100AA000CF911F910F91FF90EF90BF90AF909F90CB
:100AB0008F900895695CDECF2F923F924F925F92A4
:100AC0006F927F928F929F92AF92BF92CF92DF925E
:100AD000EF92FF921F93CF93DF93EC016A017B01AA
:100AE000722EAB019601CB01B6010E94F90C6EE1AA
:100AF00072E0811126C046015701E894B7F82FEF44
:100B00003FEF4FE75FE7C501B4010E94F90C811187
:100B10000CC02FEF3FEF4FE75FE7C501B4010E9424
:100B20002F0B62E272E0181664F02FEF3FEF4FE7F1
:100B30005FE4C701B6010E94870C1816B4F466E2A0
:100B400072E0CE01DF91CF911F91FF90EF90DF9087
:100B5000CF90BF90AF909F908F907F906F905F905D
:100B60004F903F902F900C9401052FEF3FEF4FE7F0
:100B70005FECC701B6010E942F0B87FDE0CF20E09C
:100B800030E0A901C701B6010E942F0B312C212CA6
:100B900087FF0DC0E881F9810190F081E02D6DE2C1
:100BA000CE0119951C01F7FAF094F7F8F09410E0D3
:100BB00060E070E080E09FE3711641F020E030E0FB
:100BC00040E251E40E94340B1F5FF6CFA70196016B
:100BD0000E94C30A2B013C010E94A60B4B015C0141
:100BE0002AE0BC01A401CE010E9410057C01E20CA8
:100BF000F31C1123E1F1C501B4010E94D50B9B0147
:100C0000AC01C301B2010E94C20A4B015C01E88140
:100C1000F9810190F081E02D6EE2CE011995E80E88
:100C2000F91E115020F120E030E040E251E4C5010E
:100C3000B4010E948C0C2B013C010E94A60B4B01BD
:100C4000B12CA12C2AE0B501A401CE010E9410050F
:100C5000E80EF91EC501B4010E94D50B9B01AC0141
:100C6000C301B2010E94C20A4B015C01DACFC70185
:100C7000DF91CF911F91FF90EF90DF90CF90BF90C9
:100C8000AF909F908F907F906F905F904F903F902C
:100C90002F900895CF93DF93EC0160E08E810E9446
:100CA000A60161E08E810E94A60160E08E810E9413
:100CB000A6018BE891E00197F1F7DF91CF910895BC
:100CC000CF92DF92EF92FF920F931F93CF93DF9318
:100CD0006C017C0187E0E80EF11CD0E0C0E0062F3B
:100CE00010E0B8010C2E02C0759567950A94E2F7E2
:100CF0006170F70181917F010E94A6012196C430A5
:100D0000D10579F7C601DF91CF911F910F91FF9027
:100D1000EF90DF90CF900C944A06CF92DF92EF9243
:100D2000FF920F931F93CF93DF93EC01F62E642F66
:100D30008C810E94A6018D818F3F19F060E00E9496
:100D4000A6010F2D10E08F8584FF25C06E0187E07E
:100D5000C80ED11CF12CE12CB8010E2C02C07595E7
:100D600067950A94E2F76170F60181916F010E9424
:100D7000A601FFEFEF1AFF0A88E0E816F10461F719
:100D8000CE01DF91CF911F910F91FF90EF90DF90F7
:100D9000CF900C944A06B80184E0759567958A95C2
:100DA000E1F7CE010E9460066F2DCE01DF91CF9159
:100DB0001F910F91FF90EF90DF90CF900C94600601
:100DC00040E0682F81E393E00C948D06CF93DF938E
:100DD000823029F49091400398609093400380936F
:100DE00044031092450380E48093460380E180939E
:100DF000470380E58093480361E0809135030E94BA
:100E00003202809136038F3F19F061E00E94320276
:100E100061E0809137030E943202C1E3D3E09E017A
:100E2000215333408091400384FD0BC084E090E067
:100E300021962817390744F461E08E810E9432021E
:100E4000EECF88E090E0F4CF8BE39DE00197F1F7DF
:100E500060E0809135030E94A60160E08091370335
:100E60000E94A601809136038F3F19F060E00E9436
:100E7000A6018091400384FD39C063E081E393E0E3
:100E80000E946006CBE4D6E4CE010197F1F763E05F
:100E900081E393E00E9460062197F1F763E081E32C
:100EA00093E00E94600683E592E00197F1F762E02B
:100EB00081E393E00E9460068091400380620E947B
:100EC000E00684E0809341038CE00E94E00681E02C
:100ED0000E94E0068BE39FE10197F1F782E08093A7
:100EE000420386E0DF91CF910C94E00680620E947D
:100EF000E0068BE496E40197F1F78091400380626D
:100F00000E94E00683E592E00197F1F780914003AB
:100F100080620E94E006D0CF90914403891710F0C0
:100F20008FEF890FE82FF0E0EF5CFC4F8489806839
:100F30000C94E00641E00E948D0681E090E0089567
:100F40001F920F920FB60F9211242F933F938F93FE
:100F50009F93AF93BF9380917D0290917E02A09169
:100F60007F02B09180023091780223E0230F2D3769
:100F700058F50196A11DB11D2093780280937D0242
:100F800090937E02A0937F02B093800280917902B9
:100F900090917A02A0917B02B0917C020196A11DF2
:100FA000B11D8093790290937A02A0937B02B09353
:100FB0007C02BF91AF919F918F913F912F910F90A4
:100FC0000FBE0F901F90189526E8230F0296A11DC3
:100FD000B11DD2CF1F920F920FB60F9211240BB6F4
:100FE0000F922F933F934F935F936F937F938F93C2
:100FF0009F93AF93BF93EF93FF9381E892E00E949A
:101000003D04FF91EF91BF91AF919F918F917F919F
:101010006F915F914F913F912F910F900BBE0F9069
:101020000FBE0F901F9018951F920F920FB60F9240
:1010300011240BB60F922F938F939F93EF93FF93EF
:10104000E0919102F09192028081E0919702F091FB
:10105000980282FD1DC0908180919A028F5F8F73EC
:1010600020919B02821741F0E0919A02F0E0EF5745
:10107000FD4F958F80939A02FF91EF919F918F91F1
:101080002F910F900BBE0F900FBE0F901F901895D1
:101090008081F2CFE1E8F2E01382128288EE93E0E1
:1010A000A0E0B0E084839583A683B78384E092E0D8
:1010B0009183808385EC90E09587848784EC90E031
:1010C0009787868780EC90E0918B808B81EC90E015
:1010D000938B828B82EC90E0958B848B86EC90E0F6
:1010E000978B868B118E128E138E148EE1E3F3E0B4
:1010F0001382128286E192E09183808387E0848369
:101100008FEF858386E0868385E0878384E0808710
:1011100083E0818782E0828713861486158616868F
:10112000178681E00E94E606AEE1B3E088E01596FE
:101130008C9315978BE016968C931697E6E3F2E066
:10114000E4911796EC931797E0EFF1E0E49118968D
:10115000EC93189740E85EE360E070E01D964D93D5
:101160005D936D937C9350970895789484B58260D5
:1011700084BD84B5816084BD85B5826085BD85B53B
:10118000816085BD80916E00816080936E001092B9
:101190008100809181008260809381008091810034
:1011A00081608093810080918000816080938000C5
:1011B0008091B10084608093B1008091B000816023
:1011C0008093B00080919100826080939100809123
:1011D0009100816080939100809190008160809364
:1011E00090008091A10082608093A1008091A10075
:1011F00081608093A1008091A00081608093A00015
:101200008091210182608093210180912101816080
:101210008093210180912001816080932001809141
:101220007A00846080937A0080917A008260809353
:101230007A0080917A00816080937A0080917A00B0
:10124000806880937A001092C10062E0809123034D
:101250000E9432022FB7F89480917D0290917E0215
:10126000A0917F02B09180022FBF805D9740A109BD
:10127000B1098093270390932803A0932903B09387
:101280002A0387E38093300382E00E94E60680E031
:101290000E948C076AE272E081E393E00E940105FC
:1012A00081E00E948C0767E372E081E393E00E9493
:1012B0000105E0919102F091920282E08083E09139
:1012C0008D02F0918E021082E0918F02F0919002D7
:1012D0008FEC808310929902E0919502F091960232
:1012E00086E08083E0919302F09194028081806196
:1012F0008083E0919302F0919402808188608083E2
:10130000E0919302F0919402808180688083E09163
:101310009302F091940280818F7D808368EE73E068
:1013200080E090E00E948802CBE3DFE10E94BA02F5
:10133000882349F0809124038B3028F08D3050F0C1
:1013400085518230C0F1812C912C20ECA22E2FE708
:10135000B22E1EC060911F0370E090E080E00E94FA
:10136000D70B2DEC3CEC4CEC5DE30E948C0C6B013C
:101370007C0160911E0370E090E080E00E94D70B3A
:101380009B01AC01C701B6010E94C30A4B015C017D
:101390000E94BA02882341F0809124038C3009F422
:1013A000CCC0D8F48B3091F1C12CD12C80ECE82E3C
:1013B0008FE7F82E55C060911E0370911F037627AA
:1013C0006727762790E080E00E94D50B2DEC3CEC5F
:1013D0004CEC5DE30E948C0CD9CF8551823020F714
:1013E00010912003612F70E0762F662766277F77A4
:1013F00080912103682B90E080E00E94D50B2DECBA
:101400003CEC4CEC5DE30E948C0CB3C0609120037B
:1014100070E090E080E00E94D50B6B017C011091A0
:10142000210317FF0AC0AC019B0160E070E080E877
:101430009FEB0E94C20A6B017C011F70612F70E05C
:1014400090E080E00E94D70B2DEC3CEC4CEC5DE38F
:101450000E948C0CA70196010E94C30A6B017C01BB
:1014600081E00E94E006CE010197F1F780E00E9442
:101470008C0768E472E081E393E00E94010521E0BB
:10148000B701A60181E393E00E945C056FE472E07E
:1014900081E393E00E94010581E00E948C0762E5F0
:1014A00072E081E393E00E94010521E0B501A4010F
:1014B00081E393E00E945C0568E572E081E393E0DC
:1014C0000E9401056BE572E081E892E00E9401054F
:1014D00022E0B701A60181E892E00E945C056FE47A
:1014E00072E081E892E00E94010569E672E081E81D
:1014F00092E00E9401056CE672E081E892E00E94B1
:10150000010522E0B501A40181E892E00E945C059A
:1015100068E572E081E892E00E94010569E672E008
:1015200081E892E00E94010568EE73E080E090E0BF
:101530000E9488020E94CC04F9CE10912003612FF2
:1015400070E090E080E00E94D50B6B017C0160911F
:1015500021036F7070E090E080E00E94D70B2DECCB
:101560003CEC4CEC5DE30E948C0CA70196010E94C0
:10157000C30A6B017C0117FF73CFF7FAF094F7F8F9
:10158000F0946ECF5058BB27AA270E94DA0A0C9419
:101590004D0C0E943F0C38F00E94460C20F039F4AC
:1015A0009F3F19F426F40C943C0C0EF4E095E7FBF5
:1015B0000C94360CE92F0E945E0C58F3BA176207A0
:1015C00073078407950720F079F4A6F50C94800C36
:1015D0000EF4E0950B2EBA2FA02D0B01B90190014E
:1015E0000C01CA01A0011124FF27591B99F0593F92
:1015F00050F4503E68F11A16F040A22F232F342FDA
:101600004427585FF3CF469537952795A795F04027
:101610005395C9F77EF41F16BA0B620B730B840B3C
:10162000BAF09150A1F0FF0FBB1F661F771F881FF4
:10163000C2F70EC0BA0F621F731F841F48F487954C
:1016400077956795B795F7959E3F08F0B0CF93953E
:10165000880F08F09927EE0F9795879508950E94B7
:10166000120C08F481E008950E94480B0C944D0C74
:101670000E94460C58F00E943F0C40F029F45F3F56
:1016800029F00C94360C51110C94810C0C943C0CE8
:101690000E945E0C68F39923B1F3552391F3951BD7
:1016A000550BBB27AA2762177307840738F09F5F83
:1016B0005F4F220F331F441FAA1FA9F335D00E2EF0
:1016C0003AF0E0E832D091505040E695001CCAF75D
:1016D0002BD0FE2F29D0660F771F881FBB1F261720
:1016E00037074807AB07B0E809F0BB0B802DBF01F7
:1016F000FF2793585F4F3AF09E3F510578F00C94C6
:10170000360C0C94810C5F3FE4F3983ED4F386953D
:1017100077956795B795F7959F5FC9F7880F911DE6
:101720009695879597F90895E1E0660F771F881FD2
:10173000BB1F621773078407BA0720F0621B730B85
:10174000840BBA0BEE1F88F7E09508950E94660C93
:1017500088F09F5798F0B92F9927B751B0F0E1F072
:10176000660F771F881F991F1AF0BA95C9F714C022
:10177000B13091F00E94800CB1E008950C94800C7F
:10178000672F782F8827B85F39F0B93FCCF386955B
:1017900077956795B395D9F73EF4909580957095B8
:1017A00061957F4F8F4F9F4F0895E89409C097FB35
:1017B0003EF490958095709561957F4F8F4F9F4F28
:1017C0009923A9F0F92F96E9BB279395F69587956C
:1017D00077956795B795F111F8CFFAF4BB0F11F42F
:1017E00060FF1BC06F5F7F4F8F4F9F4F16C08823D6
:1017F00011F096E911C0772321F09EE8872F762F0C
:1018000005C0662371F096E8862F70E060E02AF04C
:101810009A95660F771F881FDAF7880F9695879538
:1018200097F90895990F0008550FAA0BE0E8FEEF0D
:1018300016161706E807F907C0F012161306E40794
:10184000F50798F0621B730B840B950B39F40A268D
:1018500061F0232B242B252B21F408950A2609F46B
:10186000A140A6958FEF811D811D089597F99F676F
:1018700080E870E060E008959FEF80EC0895002418
:101880000A941616170618060906089500240A94E5
:1018900012161306140605060895092E0394000C6B
:1018A00011F4882352F0BB0F40F4BF2B11F460FFFA
:1018B00004C06F5F7F4F8F4F9F4F089557FD905823
:1018C000440F551F59F05F3F71F04795880F97FB04
:1018D000991F61F09F3F79F08795089512161306BE
:1018E0001406551FF2CF4695F1DF08C016161706ED
:1018F0001806991FF1CF8695710561050894089522
:10190000E894BB2766277727CB0197F908950E94B3
:10191000120C08F48FEF08950E949F0C0C944D0C4C
:101920000E943F0C38F00E94460C20F0952311F0E5
:101930000C94360C0C943C0C11240C94810C0E94D9
:101940005E0C70F3959FC1F3950F50E0551F629F99
:10195000F001729FBB27F00DB11D639FAA27F00D08
:10196000B11DAA1F649F6627B00DA11D661F829F2F
:101970002227B00DA11D621F739FB00DA11D621F14
:10198000839FA00D611D221F749F3327A00D611D31
:10199000231F849F600D211D822F762F6A2F112413
:1019A0009F5750409AF0F1F088234AF0EE0FFF1F46
:1019B000BB1F661F771F881F91505040A9F79E3F9D
:1019C000510580F00C94360C0C94810C5F3FE4F3CD
:1019D000983ED4F3869577956795B795F795E795F3
:1019E0009F5FC1F7FE2B880F911D9695879597F9FC
:1019F00008950E94120C880B990B0895A1E21A2EEB
:101A0000AA1BBB1BFD010DC0AA1FBB1FEE1FFF1FA2
:101A1000A217B307E407F50720F0A21BB30BE40BF2
:101A2000F50B661F771F881F991F1A9469F7609539
:101A30007095809590959B01AC01BD01CF010895F3
:101A4000EE0FFF1F881F8BBF0790F691E02D1994B2
:041A5000F894FFCF38
:101A5400000000005F04C903F603AC042704050476
:101A64001904000000009A07C903FE04FD046E6116
:101A74006E00696E66006F7666005361696E74204D
:101A84004E656C736F6E0053797374656D204F6E81
:101A94006C696E652E2E2E0054656D703A20002000
:101AA400430048756D3A200020250054656D70652B
:101AB4007261747572653A20000D0A0048756D698B
:081AC400646974793A20000006
:00000001FF
