:100000000C944C050C9474050C9474050C947405B4
:100010000C9474050C9474050C9474050C9474057C
:100020000C9474050C9474050C9474050C9474056C
:100030000C9474050C9474050C9474050C9474055C
:100040000C94C5150C9474050C9435160C940F166D
:100050000C9474050C9474050C9474050C9474053C
:100060000C9467160C947405000103070F1F3F7F63
:100070000080C0E0F0F8FCFE00000000003E5B4F96
:100080005B3E3E6B4F6B3E1C3E7C3E1C183C7E3CF8
:10009000181C577D571C1C5E7F5E1C00183C180006
:1000A000FFE7C3E7FF0018241800FFE7DBE7FF3096
:1000B000483A060E2629792926407F050507407F04
:1000C00005253F5A3CE73C5A7F3E1C1C08081C1C77
:1000D0003E7F14227F22145F5F005F5F06097F016D
:1000E0007F006689956A606060606094A2FFA29458
:1000F00008047E040810207E201008082A1C080826
:100100001C2A08081E101010100C1E0C1E0C303873
:100110003E3830060E3E0E06000000000000005F74
:1001200000000007000700147F147F14242A7F2A90
:100130001223130864623649562050000807030052
:10014000001C2241000041221C002A1C7F1C2A089E
:10015000083E080800807030000808080808000001
:1001600060600020100804023E5149453E00427F75
:10017000400072494949462141494D331814127FC4
:100180001027454545393C4A494931412111090764
:100190003649494936464949291E000014000000E5
:1001A00040340000000814224114141414140041B7
:1001B00022140802015909063E415D594E7C121174
:1001C000127C7F494949363E414141227F414141AC
:1001D0003E7F494949417F090909013E4141517327
:1001E0007F0808087F00417F41002040413F017F98
:1001F000081422417F404040407F021C027F7F0460
:1002000008107F3E4141413E7F090909063E4151A8
:10021000215E7F09192946264949493203017F0198
:10022000033F4040403F1F2040201F3F4038403F99
:10023000631408146303047804036159494D4300AF
:100240007F4141410204081020004141417F0402E6
:10025000010204404040404000030708002054547D
:1002600078407F284444383844444428384444285B
:100270007F385454541800087E090218A4A49C78AE
:100280007F0804047800447D40002040403D007F0A
:100290001028440000417F40007C047804787C08EA
:1002A0000404783844444438FC18242418182424BE
:1002B00018FC7C08040408485454542404043F44A3
:1002C000243C4040207C1C2040201C3C4030403CD2
:1002D00044281028444C9090907C4464544C440032
:1002E0000836410000007700000041360800020196
:1002F0000204023C2623263C1EA1A161123A404082
:10030000207A3854545559215555794122545478FE
:1003100042215554784020545579400C1E52721297
:100320003955555559395454545939555454580020
:1003300000457C410002457D420001457C407D1224
:1003400011127DF0282528F07C5455450020545486
:100350007C547C0A097F4932494949323A44444431
:100360003A324A4848303A4141217A3A424020786C
:10037000009DA0A07D3D4242423D3D4040403D3C6D
:1003800024FF2424487E4943662B2FFC2F2BFF0992
:1003900029F620C0887E0903205454794100004486
:1003A0007D413048484A32384040227A007A0A0A71
:1003B000727D0D19317D2629292F282629292926E4
:1003C00030484D4020380808080808080808382F29
:1003D00010C8ACBA2F102834FA00007B00000814B3
:1003E0002A142222142A14085500550055AA55AA89
:1003F00055AAFF55FF55FF000000FF00101010FF29
:1004000000141414FF001010FF00FF1010F010F083
:10041000141414FC001414F700FF0000FF00FF1474
:1004200014F404FC141417101F10101F101F1414C0
:10043000141F00101010F0000000001F101010100A
:100440001F10101010F010000000FF1010101010FE
:1004500010101010FF10000000FF140000FF00FF3C
:1004600000001F10170000FC04F4141417101714D8
:1004700014F404F40000FF00F714141414141414FA
:10048000F700F7141414171410101F101F1414146D
:10049000F4141010F010F000001F101F0000001FD7
:1004A00014000000FC140000F010F01010FF10FF0A
:1004B000141414FF141010101F00000000F010FF9F
:1004C000FFFFFFFFF0F0F0F0F0FFFFFF0000000083
:1004D00000FFFF0F0F0F0F0F3844443844FC4A4A07
:1004E0004A347E02020606027E027E0263554941BC
:1004F000633844443C04407E201E2006027E0202F3
:1005000099A5E7A5991C2A492A1C4C7201724C3006
:100510004A4D4D303048784830BC625A463D3E49DD
:100520004949007E0101017E2A2A2A2A2A44445F81
:10053000444440514A444040444A51400000FF0175
:1005400003E080FF000008086B6B08361236243683
:10055000060F090F060000181800000010100030E8
:1005600040FF0101001F01011E00191D1712003C70
:100570003C3C3C0000000000DB40A4A62EAF200065
:10058000A1C8D300408DAED580A800006000000057
:100590000000000000000000000000E0000000007B
:1005A00000000000000000000001E000000000006A
:1005B000000000000000000001F00000000000004A
:1005C0000000000000000003F00000000000000038
:1005D00000000000000007F0000000000000000024
:1005E000000000000007F80000000000000000000C
:1005F000000000000FF800000003C0007E000001B2
:10060000E0007F0FF800000003C000FE000001E0E2
:1006100000FFEFF800000003C000FE000001E00052
:10062000FFFFF800000003C000F00000000F007F93
:10063000FE7FC0000003C000F00000000F003FFE7E
:100640007FF83FF1FBCFFCFEF3BC3DEFE01FFE7FE8
:10065000FF7FFBFFDFFEFEFFBC3DEFE01FC6FFFF9D
:100660007FFBFFDFFEFEFFBC3DEFE00FE3C7FE7840
:100670007BC3DE1EF0FFBC3DEF0007FF87FC787BED
:10068000C3DE1EF0F83C3DEF0001FFFFF0007BC32E
:10069000C01EF0F03C3DEF0001F37FE03FFBC3CF15
:1006A000FEF0F03C3DEF0003E33F807FFBC3DFFE45
:1006B000F0F03C3DEF0007E73C00787BC3DE1EF026
:1006C000F03C3DEF0007FFBE00787BC3DE1EF0F07C
:1006D0003C3DEF0007FFFE00787BC3DE1EF0F03CE0
:1006E0003DEF000FFFFE007FFBFFDFFEF0F03FFD60
:1006F000EFE00FFFFF007FFBFFDFFEF0F03FFDEFBD
:10070000E00FF9FF003E79F9CF9EF0F01F3DE7E0E2
:100710001FF1FF0000000000000000000000001FAB
:1007200080FF007FFFFFFFFFFFFFFFFFFFE01C00D8
:100730007F007FFFFFFFFEB46D888D18E000001F73
:10074000007FFFFFFFFE95AD7DB577E000000F0055
:100750007FFFFFFFFEA5AD9D8D19E0000006007F25
:10076000FFFFFFFEB5ADEDB57EE00000000000012B
:100770008000000000000000000003800000000076
:10078000000000000007C0000000000000000000A2
:1007900007C00000000000000000000FC0000000C3
:1007A0000000000000001FE000000000000000004A
:1007B000001FE00000000000000000003FE000001B
:1007C000000000000000003FF000000000000000FA
:1007D00000007FF0000000000000001FF87FF00024
:1007E0000000000000003FFE7FF00000000000005D
:1007F000003FFF7FF0000000000000001FFFFBE053
:10080000000000000000000FFFF9FFC00000000022
:1008100000000FFFF9FFF800000000000007FFF1E3
:10082000FFFF00000000000003FC73FFFF800000DA
:1008300000000001FE3FFFFF80000000000000FFFD
:100840001E0FFF000000000000007FFE1FFC0000E4
:1008500000000000003FFFFFF80000000000000063
:100860000FDFFFE0000000000000001F19FFC000C4
:100870000000000000003F3CFF00000000000000FE
:10088000007E7CF800000000000000007FFE7C007D
:1008900000000000000000FFFFFC0000000000005E
:1008A0000000FFFFFE0000000000000000FFFFFE50
:1008B0000000000000000001FFEFFE00000000004B
:1008C000000001FFCFFE0000000000000003FF0752
:1008D000FE0000000000000003FC07FE0000000016
:1008E00000000003F003FE00000000000000018093
:1008F00000FE000000000000000000007E0000007C
:10090000000000000000003E0000000000000000A9
:1009100000000C000000000000078000FC00000345
:10092000C0000000078001FC000003C000000007B9
:100930008001FC000003C0000000078001E000000F
:10094000001E000000078001E00000001E007FE3A1
:10095000F79FF9FDE7787BDFC0FFF7FFBFFDFDFFE5
:10096000787BDFC0FFF7FFBFFDFDFF787BDFC0F0C6
:10097000F787BC3DE1FF787BDE00F0F787BC3DE107
:10098000F0787BDE0000F787803DE1E0787BDE00D9
:100990007FF7879FFDE1E0787BDE00FFF787BFFDF3
:1009A000E1E0787BDE00F0F787BC3DE1E0787BDEBC
:1009B00000F0F787BC3DE1E0787BDE00F0F787BC14
:1009C0003DE1E0787BDE00FFF7FFBFFDE1E07FFB6C
:1009D000DFC0FFF7FFBFFDE1E07FFBDFC07CF3F38B
:1009E0009F3DE1E03E7BCFC0000000000000000022
:1009F000000000FFFFFFFFFFFFFFFFFFFFC0FFFF43
:100A0000FFFFFD68DB111A31C0FFFFFFFFFD2B5A0E
:100A1000FB6AEFC0FFFFFFFFFD4B5B3B1A33C0FFDC
:100A2000FFFFFFFD6B5BDB6AFDC04F4C454420665A
:100A300061696C6564002200FF2100000000240051
:100A400027002A0000000000250028002B000000DD
:100A5000000800020100000304070000000000007D
:100A60000000000000002300260029000404040404
:100A70000404040402020202020203030303030348
:100A80000102040810204080010204081020010225
:100A9000040810208617781D11241FBECFEFD8E060
:100AA000DEBFCDBF11E0A0E0B1E0E2E5F2E402C0BC
:100AB00005900D92AE37B107D9F723E0AEE7B1E06C
:100AC00001C01D92A234B207E1F715E0CBE4D5E0F6
:100AD00004C02197FE010E94E51FCA34D107C9F75F
:100AE0000E9429180C941C210C9400000895CF92A8
:100AF000DF92EF92FF92CF93DF93B091E602A0E0F6
:100B00008111AB2F8091E70290E0880F991FAC0113
:100B10004E59554FC090EC02D090ED02E090EE029D
:100B2000F090EF0230E020E0FA01C591D491E88125
:100B3000B90190E080E0EB23EA130AC02F5F3F4F3A
:100B40006C157D058E059F0578F36FEF7FEFCB0168
:100B5000DF91CF91FF90EF90DF90CF90089590E0DC
:100B6000FC01E25BF54F2491FC01E058F54F349114
:100B7000FC01E459F54FE491EE23C9F0222339F04A
:100B8000233001F1A8F4213019F1223029F1F0E0ED
:100B9000EE0FFF1FEC5BF54FA591B4918FB7F89462
:100BA000EC91611126C030953E233C938FBF089590
:100BB0002730A9F02830C9F0243049F7809180000F
:100BC0008F7D03C0809180008F7780938000DFCF7E
:100BD00084B58F7784BDDBCF84B58F7DFBCF8091CB
:100BE000B0008F778093B000D2CF8091B0008F7D1E
:100BF000F9CF3E2BDACFCF93DF9390E0FC01E058A2
:100C0000F54F24918459954FFC0184918823D1F0AC
:100C100090E0880F991FFC01E65CF54FA591B49117
:100C2000FC01EC5BF54FC591D491623071F49FB734
:100C3000F8943C91822F809583238C93E8812E2B0E
:100C400028839FBFDF91CF9108958FB7F894EC91DF
:100C50002E2B2C938FBFF6CF3FB7F894809136029E
:100C600090913702A0913802B091390226B5A89B25
:100C700005C02F3F19F00196A11DB11D3FBFBA2F2E
:100C8000A92F982F8827BC01CD01620F711D811DEE
:100C9000911D42E0660F771F881F991F4A95D1F773
:100CA00008958F929F92AF92BF92CF92DF92EF9270
:100CB000FF924B015C010E942C066B017C010E949B
:100CC0002C066C197D098E099F09683E73408105C9
:100CD0009105A8F321E0821A9108A108B10888EED5
:100CE000C80E83E0D81EE11CF11C81149104A104FC
:100CF000B10429F7FF90EF90DF90CF90BF90AF90B5
:100D00009F908F900895CF92DF92EF92FF920F9372
:100D10001F93CF93DF93CDB7DEB7C054D1400FB64A
:100D2000F894DEBF0FBECDBF2FB7F89480913A0282
:100D300090913B02A0913C02B0913D022FBF4091A7
:100D4000E8025091E9026091EA027091EB028C0195
:100D50009D01041B150B260B370BB901A801403D63
:100D600057406105710590F48091F002C05CDE4F40
:100D70000FB6F894DEBF0FBECDBFDF91CF911F91AC
:100D80000F91FF90EF90DF90CF9008958093E8024D
:100D90009093E902A093EA02B093EB021092E3026F
:100DA0001092E2021092E1021092E0021092DF0231
:100DB00062E08091E4020E94FB0561E070E080E067
:100DC00090E00E94510661E08091E4020E94FB05E0
:100DD00060E08091E4020E94AF058091E5028551B8
:100DE000823020F58BE291E10197F1F762E080918A
:100DF000E4020E94FB058091F10290E082309105AF
:100E000038F0880F991F880F991F05970197F1F700
:100E1000F89480E00E9477056F3F7F4F8F4F9F4F80
:100E200061F41092F002789480E0A0CF64E170E069
:100E300080E090E00E945106D9CF81E00E947705C2
:100E40006F3F7F4F8F4F9F4F61F38E010F5F1F4F9B
:100E50006E018FEBC81A8EEFD80A780180E00E94ED
:100E60007705F701608371838283938381E00E9419
:100E70007705F7016483758386839783F8E0EF0E27
:100E8000F11CEC14FD0451F7789430E020E0F801F7
:100E9000C080D180E280F380448155816681778172
:100EA000FFEFCF16DF06EF06FF0631F04F3F8FEF63
:100EB00058076807780719F41092F002B5CFF901C6
:100EC00083E0F595E7958A95E1F7E152FD4F808142
:100ED000880FC416D506E606F70610F180832F5F4B
:100EE0003F4F085F1F4F2832310589F64091E302DA
:100EF0002091DF028091E002280F3327331F809179
:100F0000E102280F311D8091E202820F932F911D83
:100F100099274817190681F681E08093F00226CFC1
:100F20008160DCCF08950895AF92BF92CF92DF9297
:100F3000EF92FF920F931F93CF93DF936C017B018E
:100F40008B01040F151FEB015E01AE18BF08C0171F
:100F5000D10759F06991D601ED91FC910190F08192
:100F6000E02DC6010995892B79F7C501DF91CF9155
:100F70001F910F91FF90EF90DF90CF90BF90AF90B7
:100F80000895FC01538D448D252F30E0842F90E08F
:100F9000821B930B541710F0CF9608950197089574
:100FA000FC01918D828D981761F0A28DAE0FBF2F3D
:100FB000B11D5D968C91928D9F5F9F73928F90E093
:100FC00008958FEF9FEF0895FC01918D828D981702
:100FD00031F0828DE80FF11D858D90E008958FEF3F
:100FE0009FEF0895FC01918D228D892F90E0805C08
:100FF0009F4F821B91098F739927089582E492E095
:101000000E94F20721E0892B09F420E0822F089545
:1010100080E090E0892B29F00E94FE0781110C945A
:1010200000000895FC01A48DA80FB92FB11DA35A8B
:10103000BF4F2C91848D90E001968F739927848FF8
:10104000A689B7892C93A089B1898C91837080641B
:101050008C93938D848D981306C00288F389E02DBC
:1010600080818F7D80830895EF92FF920F931F936D
:10107000CF93DF93EC0181E0888F9B8D8C8D98134B
:101080001AC0E889F989808185FF15C09FB7F89457
:10109000EE89FF896083E889F989808183708064A3
:1010A00080839FBF81E090E0DF91CF911F910F91EE
:1010B000FF90EF900895F62E0B8D10E00F5F1F4FFD
:1010C0000F731127E02E8C8D8E110CC00FB607FC0C
:1010D000FACFE889F989808185FFF5CFCE010E949A
:1010E0001208F1CFEB8DEC0FFD2FF11DE35AFF4FEE
:1010F000F0829FB7F8940B8FEA89FB898081806228
:10110000CFCFCF93DF93EC01888D8823B9F0AA89E4
:10111000BB89E889F9898C9185FD03C0808186FDB2
:101120000DC00FB607FCF7CF8C9185FFF2CF808101
:1011300085FFEDCFCE010E941208E9CFDF91CF915C
:1011400008950895FC016370668B848195812681E2
:101150003781613039F0633029F091878087338798
:1011600022870895318720879387828708952F9259
:101170003F924F925F926F927F928F929F92AF9227
:10118000BF92CF92DF92EF92FF920F931F93CF9374
:10119000DF93CDB7DEB76A970FB6F894DEBF0FBE08
:1011A000CDBF9A8F898F7A8369834A01D22E18879F
:1011B0000F833701BC2CDC0159962D913C915A9735
:1011C0002115310509F015C118968D919C9119973B
:1011D000681779070CF0D7C11A968D919C91481722
:1011E00059070CF0D0C14C2C512CB6E0CB9E600DB1
:1011F000711D11247C876B87161617060CF0C3C16E
:10120000EA2DF0E0FA87E98793E0EE0FFF1F9A9549
:10121000E1F7F88BEF87CF01840F951F1816190699
:101220000CF0B1C1A98DBA8D58968C91811104C072
:10123000BFEABD1508F4D394A98DBA8DED91FC9148
:1012400011970284F385E02DCD010995B5E0DB9E71
:10125000C0011124E981FA81FC83EB83312C212C1C
:101260009C0128583F4F388F2F8B4A2D50E05E8BC2
:101270004D8BEF89F88DE20DF31D44919E828D8296
:10128000D12CC12C69817A81620D731D7A8B698B97
:10129000842F90E09C8B8B8BE98DFA8DA081B1819E
:1012A00040FF82C0F1E0BF126FC0AF126DC01C964C
:1012B000ED91FC912F813885A4014C0D5D1D69894C
:1012C0007A89898D9A8D0995EB89FC89F595E79541
:1012D0004E2F5FEFC51AD50A6D817E818D899E895B
:1012E000680F791F7E836D8398E0C916D10481F65B
:1012F000AFEF2A1A3A0AEB81FC81E40DF51DFC835D
:10130000EB83F5E02F16310409F0B3CF2F81388538
:1013100026153705B9F0A98DBA8DED91FC91B1E094
:10132000BB1257C0AB1255C069817A816B5F7F4F8A
:101330000088F189E02D830128E030E0A401898D47
:101340009A8D0995A98DBA8DED91FC91119706881A
:10135000F789E02DCD016A960FB6F894DEBF0FBE77
:10136000CDBFDF91CF911F910F91FF90EF90DF9054
:10137000CF90BF90AF909F908F907F906F905F9035
:101380004F903F902F9009941E96ED91FC91EF8025
:10139000F88409851A8592014D815E816B817C817B
:1013A000898D9A8D099590CF2F813885261537051F
:1013B00009F48ACF31E0B31207C0A31205C01C960E
:1013C000ED91FC91930178CF1E96ED91FC91730104
:1013D000E0CF6B857C85641975090684F785E02D5F
:1013E00073010F8518899201A401898D9A8D099541
:1013F000A9CFF90134969491329745915491D91A15
:10140000B7E0DB9E400D511D1124F9012591349167
:101410003C8B2B8BFA0125903490FA013296749014
:1014200031963491398B329664903196449041E0F4
:101430004C1518F04A1508F07FC0662D062C000CDC
:10144000770B7C836B83842D042C000C990B9E837B
:101450008D83A98DBA8DED91FC9111970284F3854E
:10146000E02DCD010995512CD12CC12CEA2DF0E0B5
:10147000FA87E9872B2D30E03C872B87A401440DA8
:10148000511D47FC5A95588F4F8B69817A81660DA3
:10149000711D67FC7A957E876D877989C71608F07C
:1014A00051CF2C2D30E04D815E81420F531FA98515
:1014B000BA854A9FC0014B9F900D5A9F900D1124F1
:1014C000FC01E80DF91DF88BEF87852D612C4F8904
:1014D000588D420F531F5E8B4D8B671408F050C020
:1014E00044244394480E877041F4C1010196EB896E
:1014F000FC89E20DF31DD4901C01D7FE19C0A98D03
:10150000BA8DED91FC91662D70E0B1E0BB1219C06F
:10151000AB1217C02D853E85620F731F0484F585BD
:10152000E02D2F8138854D895E89898D9A8D0995A9
:10153000DD0C6394842DD1CF1E821D821C821B8200
:1015400088CF4B815C81640F751FAB85BC856A9F1A
:10155000C0016B9F900D7A9F900D112469817A8153
:10156000680F791F0684F785E02DEF80F8840985E0
:101570001A859D014F855889898D9A8D0995D8CFF7
:10158000570CC3948ACF6A960FB6F894DEBF0FBE8D
:10159000CDBFDF91CF911F910F91FF90EF90DF9022
:1015A000CF90BF90AF909F908F907F906F905F9003
:1015B0004F903F902F9008958F929F92AF92CF922D
:1015C000EF92FF920F931F93CF93DF93EC01262F9F
:1015D000898D9A8D009709F051C06A30D1F41D862B
:1015E0001C868D8948E0849F900111248E859F85FB
:1015F000820F931F9F878E8781E090E0DF91CF91CC
:101600001F910F91FF90EF90CF90AF909F908F9090
:1016100008956D3089F3CC88AD888F898823C1F017
:101620008C859D8536E0C39E800D911D11244885D3
:1016300059854817590764F44E855F851D861C86B9
:1016400038E0A39EC0011124840F951F9F878E87C9
:10165000EA88FB88088919894E855F856C857D85B8
:10166000CE010E94B7082C898C859D8546E0249F79
:10167000800D911D11249D878C87BECF6A3069F43F
:101680001D861C86FC013896E4912D898E859F85E8
:10169000E29F800D911D1124ADCF6D3009F4ACCFC8
:1016A000FC0134963491631708F4A6CF3296E49186
:1016B000E61708F4A1CFFC01329685909490462F4E
:1016C000431B342F47E0349F800C911C1124F401FC
:1016D000329634913196E4913323A9F1EE2399F1B6
:1016E000CC88F4013596E491AD884F89442301F10B
:1016F0000E2E000CFF0BE30FF11DCE9EA001CF9E1E
:10170000500D11246C857D85460F571F688579859E
:10171000641775076CF44E855F851D861C86FC0179
:101720003896E491AE9E400D511D11245F874E877F
:10173000EA88FB88088919894E855F856C857D85D7
:10174000CE010E94B708F4013496E4912C898C856F
:101750009D85E29F800D911D11248DCF6F927F9208
:101760008F929F92AF92BF92CF92DF92EF92FF92B1
:101770000F931F93CF93DF93EC016B015A01390153
:101780004801E881F9810284F385E02D0995E8811B
:10179000F9810288F389E02D87019301A501B60143
:1017A000CE010995A501480D591D41505109E88107
:1017B000F9810288F389E02D9301B601CE010995E4
:1017C000E881F9810088F189E02D9401A501B60135
:1017D000CE010995C60CD71CB60161507109E8818C
:1017E000F9810088F189E02D9401A501CE010995C8
:1017F000E881F9810688F789E02DCE01DF91CF914C
:101800001F910F91FF90EF90DF90CF90BF90AF901E
:101810009F908F907F906F9009946F927F928F929C
:101820009F92AF92BF92CF92DF92EF92FF920F936F
:101830001F93CF93DF935C01EB016A0149013801EB
:101840008701DC01ED91FC916217730719F56416AD
:1018500075062CF0962D872D3A01C92ED82E9601AB
:10186000261937092F5F3F4F048CF58DE02DA3011A
:10187000BE01C5010995DF91CF911F910F91FF9096
:10188000EF90DF90CF90BF90AF909F908F907F9020
:101890006F9008954615570591F42617370724F0E1
:1018A000892D4B01C22FD82F9E01281939092F5F8E
:1018B0003F4F068CF78DE02DA601B401DACF0284EC
:1018C000F385E02D0995D501ED91FC910488F5890A
:1018D000E02D83019401A601BE01C5010995D50142
:1018E000ED91FC910688F789E02DC501DF91CF913C
:1018F0001F910F91FF90EF90DF90CF90BF90AF902E
:101900009F908F907F906F900994EF92FF920F932A
:101910001F93DC011A960D911C911B9718962D911F
:101920003C911997ED91FC9100A0F1A1E02D7B0174
:1019300050E040E070E060E009951F910F91FF904A
:10194000EF9008954F925F926F927F928F929F9245
:10195000AF92BF92CF92DF92EF92FF920F931F93BD
:10196000CF93DF936C012B015A0139014801DC014F
:10197000ED91FC910284F385E02D0995E201640C60
:10198000751CD601ED91FC91C615D7055CF4008855
:10199000F189E02D87019401A501BE01C6010995D9
:1019A0002196EFCF0688F789E02DC601DF91CF9110
:1019B0001F910F91FF90EF90DF90CF90BF90AF906D
:1019C0009F908F907F906F905F904F9009948F922F
:1019D0009F92AF92BF92CF92DF92EF92FF920F93BE
:1019E0001F93CF93DF93EC015B014A016901E8810A
:1019F000F9810284F385E02D099595012C0D3D1D9B
:101A000021503109E881F9810488F589E02D7801B8
:101A10008401A401B501CE010995E881F981068808
:101A2000F789E02DCE01DF91CF911F910F91FF90AB
:101A3000EF90DF90CF90BF90AF909F908F900994E0
:101A40008F929F92AF92BF92CF92DF92EF92FF92CE
:101A50000F931F93CF93DF93EC015B014A01690160
:101A60007801E881F9810284F385E02D0995C80C9D
:101A7000D91C860101501109E881F9810488F58992
:101A8000E02D9501A401B501CE010995E881F98108
:101A90000688F789E02DCE01DF91CF911F910F913C
:101AA000FF90EF90DF90CF90BF90AF909F908F907E
:101AB0000994EF92FF920F931F93DC01ED91FC913B
:101AC00000A0F1A1E02D09951F910F91FF90EF90DB
:101AD00008950F931F93DC01ED91FC91068CF78D17
:101AE000E02D09951F910F9108950F931F93DC012D
:101AF000ED91FC91048CF58DE02D09951F910F91CE
:101B00000895DC01ED91FC910084F185E02D0994AC
:101B10003F924F925F926F927F928F929F92AF927D
:101B2000BF92CF92DF92EF92FF920F931F93CF93CA
:101B3000DF935C017B014A016901390187E0680E8E
:101B4000711C93E0759467949A95E1F72B01400E10
:101B5000511E10E000E0312CD0E0C0E0CE018770D3
:101B60009927330C892B59F4FE0183E0F595E7950D
:101B70008A95E1F7E00FF11FE80DF91D349037FE6B
:101B80000AC021E030E0A701B5016C0F7D1F8EEF88
:101B900092E00E94810D2196CC16DD06F9F68FEFBA
:101BA000E81AF80A060D171DE414F504A9F6DF91EA
:101BB000CF911F910F91FF90EF90DF90CF90BF904A
:101BC000AF909F908F907F906F905F904F903F90DD
:101BD00008952F923F924F925F926F927F928F92D1
:101BE0009F92AF92BF92CF92DF92EF92FF920F93AC
:101BF0001F93CF93DF9300D000D000D0CDB7DEB7D6
:101C00003C016A013E832D83FC82EB825801A41AB9
:101C1000B50AB7FE03C0B194A194B1088D809E802F
:101C2000861A970A97FE03C09194819491088A14AA
:101C30009B045CF0902F812F0D811E819D838E83EC
:101C40009C2D8D2D6B01692F782F0C151D055CF0D7
:101C50009D818E817E836D83692F782F902F812FB8
:101C60008601C92ED82E1601201A310A2B012D818A
:101C70003E81421A530A57FE03C0519441945108C1
:101C8000710137FE03C03FEFE31AF30AF594E794BE
:101C90008D819E81861797075CF5A1E0B0E0BA833D
:101CA000A983C016D1064CF1D301ED91FC910484B7
:101CB000F585E02D2B813C81A8016D817E818A1400
:101CC0009B041CF04D815E81B801C3010995E418A5
:101CD000F508F7FE0AC02D813E8189819A81280F7F
:101CE000391F3E832D83E20CF31C0F5F1F4FD9CFAA
:101CF0002FEF3FEF3A832983D4CF26960FB6F8947F
:101D0000DEBF0FBECDBFDF91CF911F910F91FF902E
:101D1000EF90DF90CF90BF90AF909F908F907F908B
:101D20006F905F904F903F902F900895EF92FF92A9
:101D30000F931F93CF93DF93EC01EC80FD806E1522
:101D40007F050CF070C057FF04C0240F351F50E012
:101D500040E08E819F81FA01E20FF31F8E179F07EB
:101D60001CF49C01241B350B121613060CF05BC0EF
:101D7000922F842F8695869586958E9DD0018F9D76
:101D8000B00D11246A0F7B1FAF8DB8A1A60FB71F2E
:101D9000477049F188E0841B482F682F70E0FB01F1
:101DA000E059FF4FE491281708F063C0621B7109E6
:101DB0002FEF30E002C0359527956A95E2F7E223D0
:101DC0000130110539F0B0F10230110561F58C9147
:101DD000E82702C08C91E82BEC93941720F12C811A
:101DE0003D81A20FB31FE92FE41BE83078F00230E9
:101DF000110521F58E2F9C9190959C932C813D810E
:101E0000A20FB31F88508830B0F7E770EE2359F067
:101E1000F0E0E859FF4FE49101301105F9F010F1BD
:101E20000230110519F1DF91CF911F910F91FF90B1
:101E3000EF900895E0958C91E823CECF81E00115D5
:101E4000110509F480E081959E2F8C932C813D81B2
:101E5000A20FB31F98509830C0F7D7CF8C91E82BC2
:101E6000EC93E1CFE0958C91E823FACF8C91E827B1
:101E7000F7CF0130110509F4ADCFE0F202301105C2
:101E800009F4A5CFAE0DBF1DAECF0F931F93CF9317
:101E9000DF9377FF04C0260F371F70E060E0DC019E
:101EA0001496CD91DC91FB01E20FF31FCE17DF07F3
:101EB0001CF49E01261B370B121613064CF5FA0173
:101EC00057FD3796A3E0F595E795AA95E1F7EC9FC6
:101ED000D001ED9FB00DFC9FB00D11246A0F7B1F48
:101EE000DC015F96ED91FC91E60FF71F47705527D7
:101EF00081E090E001C0880F4A95EAF7482F013051
:101F0000110559F0A8F02E0F3F1F02301105E1F026
:101F1000DF91CF911F910F9108952E0F3F1FE21770
:101F2000F307B1F38191DF011197842B8C93F7CFE5
:101F300080952E0F3F1FE217F30751F39191DF01B8
:101F4000119798239C93F7CFE217F30709F3819138
:101F5000DF01119784278C93F7CF0F931F93FA011A
:101F6000DC0156964C9156974230E9F04330A1F18E
:101F7000413061F514964D915C91DA01AE1BBF0BB7
:101F8000FD01E21BF30B77FD0BC0DC0116964D91B2
:101F90005C916417750724F4AB01BF010E94450FE3
:101FA0001F910F91089514964D915C91DA01A61B33
:101FB000B70BBD0161507109DC0116964D915C9122
:101FC000DA01AE1BBF0BFD01E21BF30B77FDE8CF7F
:101FD000AF010E94960EE4CF16964D915C91DA0106
:101FE000A61BB70BBD0161507109CDCF0F931F9395
:101FF000FA01DC0156964C9156974230A9F04330D5
:1020000091F1413019F514964D915C91DA01AE1BB6
:10201000BF0BFD013197F7FD04C0AB01BF010E946A
:10202000960E1F910F91089514964D915C91DA01CF
:10203000A61BB70BBD01DC0116964D915C91DA0130
:10204000AE1BBF0BFD013197621B730BF7FDE9CF90
:10205000DC0116964D915C91E417F50714F7AF017A
:102060000E94450FDECF16964D915C91DA01A61BBA
:10207000B70BBD01621B730BCECFFC0177FD64C0B3
:1020800080859185681779070CF05EC057FD5CC0AC
:1020900082859385481759070CF056C0868982308F
:1020A000B1F0833029F1813041F484819581841B22
:1020B000950BAB01BC01615071092130310509F16B
:1020C00008F443C02230310509F463C008958481C7
:1020D0009581DC01A61BB70BBD016150710986819A
:1020E0009781DC01A41BB50BAD0141505109E5CF2F
:1020F00086819781861B970BBA01AC01415051092B
:10210000DCCFCA0157FD0796A3E095958795AA9560
:10211000E1F7A481B5818A9F90018B9F300D9A9F32
:10212000300D1124620F731F078CF0A1E02DE60F14
:10213000F71F4770552721E030E001C0220F4A9574
:10214000EAF78081822B80830895CA0157FD0796A4
:1021500033E0959587953A95E1F7A481B5818A9FFB
:1021600090018B9F300D9A9F300D1124620F731FC9
:10217000078CF0A1E02DE60FF71F4770552781E08F
:1021800090E001C0880F4A95EAF7809590818923F5
:10219000DACFCA0157FD079623E0959587952A95D2
:1021A000E1F7A481B5818A9F90018B9F300D9A9FA2
:1021B000300D1124620F731F078CF0A1E02DE60F84
:1021C000F71F4770552721E030E001C0220F4A95E4
:1021D000EAF780818227B7CF08958EBD00000DB445
:1021E00007FEFDCF8EB508958CBD9DBD0895089561
:1021F0002091E401260F3327331F21323105ECF4FF
:1022000020910802FC0190E080E0243069F082E037
:102210000895A091E4012191AC014C535E4FA40FAD
:10222000B52FB11D2C930196861798F38091E40188
:10223000680F6093E40180E0089581E008951092B2
:10224000080281E080930A021092090261E082E1B3
:102250000E94AF0561E083E10E94AF05E9EBF0E089
:1022600080818E7F808380818D7F808388E48093CE
:10227000B80085E48093BC000895CF93DF9391E08C
:102280009093C3018823B9F0C091B800D091BA00EF
:102290008091BC008A7B8093BC0060E082E10E9458
:1022A000AF0560E083E10E94AF050E941F11D0934B
:1022B000BA00C093B800DF91CF910895E091340245
:1022C00080913302E81730F4F0E0E256FE4F80814F
:1022D00090E008958FEF9FEF0895909134028091E0
:1022E00033022FEF3FEF981748F4E92FF0E0E25662
:1022F000FE4F208130E09F5F90933402C901089522
:102300008091330290913402891B990B0895CF92EA
:10231000DF92EF92FF920F931F93CF93DF937C0195
:10232000CB018A0120914102222389F0EB016B014C
:10233000C40ED51ECC15DD0569F06991D701ED916C
:10234000FC910190F081E02DC7010995F3CF642F36
:102350000E94F810C801DF91CF911F910F91FF905B
:10236000EF90DF90CF900895CF93DF931F92CDB77A
:10237000DEB76983209141022223F9F020913E02C9
:10238000203258F021E030E0FC013383228390E0DA
:1023900080E00F90DF91CF91089580913F02E82F68
:1023A000F0E0E258FE4F998190838F5F80933F0267
:1023B00080933E0281E090E0ECCF61E0CE01019697
:1023C0000E94F810F7CFCF92DF92EF92FF920F9317
:1023D0001F93CF93DF93D0913E0281E0D13208F07A
:1023E0009CC0C09140020E942C066B017C01809130
:1023F000080281116CC082E08093080281E0809322
:102400000A028FEF8093070210922C02D0932B02C6
:10241000AEE7B1E0EBE0F2E080E0D8138DC01092BF
:102420002D0280912D02CC0FC82BC0932D028091DC
:102430000902813009F084C0109209020E942C0622
:102440006B017C0180912D028093BB008091BF01C4
:102450009091C001A091C101B091C201892B8A2B3A
:102460008B2BA1F00E942C060091BF011091C0019E
:102470002091C1013091C2016C197D098E099F091B
:10248000061717072807390708F442C08091BC00D7
:1024900083FDD8CF85EC8093BC000E942C066B0195
:1024A0007C0180910802823009F44CC080910702BF
:1024B0008F3F09F469C080910702803209F466C039
:1024C00080910702803309F463C084E026C08091C4
:1024D000BF019091C001A091C101B091C201892BAF
:1024E0008A2B8B2B09F483CF0E942C060091BF010D
:1024F0001091C0012091C1013091C2016C197D0978
:102500008E099F09061717072807390708F06FCFAC
:102510008091BE010E943D1185E010923F02109211
:102520003E0210924102DF91CF911F910F91FF90D7
:10253000EF90DF90CF9008959D9191938F5F6DCF35
:1025400085EEA9CF8091BF019091C001A091C101FA
:10255000B091C201892B8A2B8B2B09F4A2CF0E9448
:102560002C060091BF011091C0012091C101309152
:10257000C2016C197D098E099F09061717072807E4
:10258000390708F08ECFC4CF80E0C7CF82E0C5CF37
:1025900083E0C3CFEF92FF920F931F93CF93DF930C
:1025A0007C01C62F80911B0390911C03009709F4B6
:1025B00059C020911F0331E0309341022093400223
:1025C00010923F0210923E02DC01ED91FC910190CD
:1025D000F081E02D60E009958701EE24E394F12C71
:1025E000D1E0C15080911B0390911C03CF3F91F12A
:1025F000B0E2EB16F104D8F00E94E31180911B03C6
:1026000090911C0320911F03D0934102209340021C
:1026100010923F0210923E02DC01ED91FC9101907C
:10262000F081E02D60E00995EE24E394F12C809197
:102630001B0390911C03F8016491DC01ED91FC9166
:102640000190F081E02D0995BFEFEB1AFB0A0F5FB7
:102650001F4FC7CFDF91CF911F910F91FF90EF9048
:102660000C94E311E0912B03F0912C039081809165
:1026700031038095892380838701C15008F438C0D5
:10268000F80184912091190330911A03232B29F02A
:102690000E94ED100F5F1F4FF0CF28E030E040E8C0
:1026A000E0912703F091280390912F03582F542392
:1026B000D9F05081952B9083E0912903F0912A0362
:1026C000908150913003952B9083E0912903F091F4
:1026D0002A035081909130039095952390834695DD
:1026E00021503109E9F6D6CF508190959523E3CF5B
:1026F000DF91CF911F910F91FF90EF9008951F935D
:10270000CF93DF93EC018D8D9E8D009721F1162FD5
:1027100029A131E0309341022093400210923F0200
:1027200010923E02DC01ED91FC910190F081E02DD0
:1027300060E009958D8D9E8DDC01ED91FC910190FD
:10274000F081E02D612F09958D8D9E8DDF91CF91C8
:102750001F910C94E311ADA5BEA59C918BA980950A
:1027600089238C938B8D9C8D892B31F0862FDF9163
:10277000CF911F910C94ED1028E030E080E8A9A5DE
:10278000BAA599A9462F4823C1F04C91942B9C934C
:10279000ABA5BCA59C914AA9942B9C93ABA5BCA5C9
:1027A0004C919AA9909594239C9386952150310938
:1027B00031F7DF91CF911F9108954C91909594231B
:1027C000E6CF1F93CF93DF93EC01162F8D8D9E8D57
:1027D000892BB1F12DA93EA94FA958AD60E074E253
:1027E00084EF90E00E94C31F205131094109510933
:1027F00056954795379527952093B80066EA1111AD
:1028000067EACE010E947F138D8D9E8D892B41F149
:1028100029AD3AAD4BAD5CAD60E074E284EF90E081
:102820000E94C31F2051310941095109569547950E
:10283000379527952093B800DF91CF911F91089588
:102840008B8D9C8D892B21F08EAD9FAD0E94F41055
:10285000EFA5F8A990818CA9809589238083CECF9C
:10286000EFA5F8A980819CA9892B8083E5CF90E012
:1028700080E008952091040330910503C901079673
:1028800097FD079623E0959587952A95E1F7209186
:10289000020330910303829FA001839F500D929FFA
:1028A000500D112470E060E080911D0390911E0393
:1028B0000C9415210E941021FB0101900020E9F7E2
:1028C0003197AF01461B570BDC01ED91FC91028063
:1028D000F381E02D09948F929F92AF92BF920F9354
:1028E0001F93CF93DF93CDB7DEB7A1970FB6F894C0
:1028F000DEBF0FBECDBF19A2423008F44AE08E0100
:102900000F5D1F4F842E912CB12CA12CA501940199
:102910000E94C31FE62FB901CA01EA3004F5E05D49
:10292000D801EE938D01232B242B252B79F790E0F2
:1029300080E0109729F0BD018EEF92E00E945C14B8
:10294000A1960FB6F894DEBF0FBECDBFDF91CF9139
:102950001F910F91BF90AF909F908F900895E95C69
:10296000DFCF4F925F926F927F928F929F92AF9242
:10297000BF92CF92DF92EF92FF920F931F93CF936C
:102980006B017C01742EAC019B010E94BE1F66E5A9
:1029900071E0811126C046015701E894B7F82FEF86
:1029A0003FEF4FE75FE7C501B4010E94BE1F8111F1
:1029B0000CC02FEF3FEF4FE75FE7C501B4010E9466
:1029C000F41D6AE571E0181664F02FEF3FEF4FE752
:1029D0005FE4C701B6010E944C1F1816ACF46EE507
:1029E00071E08EEF92E0CF911F910F91FF90EF90E9
:1029F000DF90CF90BF90AF909F908F907F906F901F
:102A00005F904F900C945C142FEF3FEF4FE75FEC1B
:102A1000C701B6010E94F41D87FDE1CF20E030E040
:102A2000A901C701B6010E94F41D10E000E087FF74
:102A30000AC06DE28EEF92E00E94DC0A8C01F7FA88
:102A4000F094F7F8F094C0E060E070E080E09FE37D
:102A50007C1641F020E030E040E251E40E94F91D94
:102A6000CF5FF6CFA70196010E94881D2B013C0184
:102A70000E946B1E4B015C014AE00E946B147C01BA
:102A8000E00EF11ECC23C1F1C501B4010E949A1ED3
:102A90009B01AC01C301B2010E94871D4B015C0187
:102AA0006EE28EEF92E00E94DC0AE80EF91EC15041
:102AB00018F120E030E040E251E4C501B4010E9489
:102AC000511F2B013C010E946B1E4B01B12CA12C0C
:102AD0004AE0C501B4010E946B14E80EF91EC5015D
:102AE000B4010E949A1E9B01AC01C301B2010E9475
:102AF000871D4B015C01DBCFC701CF911F910F9167
:102B0000FF90EF90DF90CF90BF90AF909F908F900D
:102B10007F906F905F904F90089585ED8093BC00FB
:102B20008091BF019091C001A091C101B091C201FB
:102B30000796A11DB11D23E0B695A795979587959A
:102B40002A95D1F72091BC0024FD03C01092080201
:102B500008954091BF015091C0016091C1017091F1
:102B6000C201452B462B472B69F30097A105B10500
:102B700041F02AE22A95F1F700C00197A109B109B5
:102B8000E1CF8091BE010C943D111F920F920FB6C0
:102B90000F9211242F933F938F939F93AF93BF93E3
:102BA00080913A0290913B02A0913C02B0913D028B
:102BB0003091350223E0230F2D3758F50196A11DE2
:102BC000B11D2093350280933A0290933B02A0936B
:102BD0003C02B0933D028091360290913702A09161
:102BE0003802B09139020196A11DB11D80933602C1
:102BF00090933702A0933802B0933902BF91AF91FE
:102C00009F918F913F912F910F900FBE0F901F902A
:102C1000189526E8230F0296A11DB11DD2CF1F9251
:102C20000F920FB60F9211242F933F934F935F9300
:102C30006F937F938F939F93AF93BF93EF93FF9384
:102C400082E492E00E941208FF91EF91BF91AF9150
:102C50009F918F917F916F915F914F913F912F91B4
:102C60000F900FBE0F901F9018951F920F920FB6E6
:102C70000F9211242F938F939F93EF93FF93E091E3
:102C80005202F09153028081E0915802F091590272
:102C900082FD1BC0908180915B028F5F8F732091BA
:102CA0005C02821741F0E0915B02F0E0EE5BFD4FC9
:102CB000958F80935B02FF91EF919F918F912F9160
:102CC0000F900FBE0F901F9018958081F4CF1F9228
:102CD0000F920FB60F9211242F933F934F935F9350
:102CE0006F937F938F939F93AF93BF93EF93FF93D4
:102CF0008091B900887F803609F44AC0F0F58832A7
:102D000009F4A7C018F5803109F49BC0B8F48823F2
:102D100009F4F9C0883009F494C0FF91EF91BF9194
:102D2000AF919F918F917F916F915F914F913F9163
:102D30002F910F900FBE0F901F901895883109F4B6
:102D400088C0803251F78093070214C0803409F4A0
:102D50009DC040F48033B9F38833F9F680930702BD
:102D600085ECB0C0803509F485C0883509F496C07B
:102D7000883499F60E948D15D0CF883909F48CC01B
:102D800038F5883729F050F4883611F0803729F665
:102D900083E0809308021092060257C0883809F435
:102DA0007BC0803919F0803809F0B7CF80910602D6
:102DB000803208F071C0E091060281E08E0F8093AE
:102DC00006028091BB00F0E0EA51FE4F80833DC0D7
:102DD000803B39F0E0F4803A09F479C0883A09F090
:102DE0009CCF84E0809308021092E5011092E401E8
:102DF000E0913102F091320209958091E401811154
:102E00000FC081E08093E4011092C40109C0803CAE
:102E100009F4A6CF883C09F4A3CF883B09F07DCF05
:102E2000E091E50181E08E0F8093E501F0E0EC5345
:102E3000FE4F80818093BB009091E5018091E40179
:102E400029C080912D028093BB0085EC8093BC004B
:102E500064CF90912C0280912B02981758F5E09145
:102E60002C0281E08E0F80932C02F0E0E55FFD4F95
:102E70008081E9CFE0912C0281E08E0F80932C02BB
:102E80008091BB00F0E0E55FFD4F808390912C02C4
:102E900080912B029817C8F285E8D8CFE0912C02D8
:102EA00081E08E0F80932C028091BB00F0E0E55F03
:102EB000FD4F808380910A0281115CCF81E0809375
:102EC000090284EA8093BC001092080226CF85ECA8
:102ED0008093BC001092080280910602803230F488
:102EE000E0910602F0E0EA51FE4F10826091060286
:102EF00070E0E0912F02F091300286EE91E00995AA
:102F0000109206020ACF1092070234CFE2E4F2E0F8
:102F10001382128248EE53E060E070E044835583F0
:102F2000668377838AE091E09183808385EC90E0EB
:102F30009587848784EC90E09787868780EC90E083
:102F4000918B808B81EC90E0938B828B82EC90E074
:102F5000958B848B86EC90E0978B868B118E128EEE
:102F6000138E148EA2EFB2E013961C921E9212974B
:102F700014964D935D936D937C9317978CE191E03C
:102F800011969C938E93EEEFF2E01382128220E86A
:102F900030E03583248380E490E097838683318713
:102FA000208793878287168A158614861786168649
:102FB00081E0858B848B2FEF3FEF338B228B318B1E
:102FC000208B878B108E128E118E8EE291E0918372
:102FD0008083148E138EB68FA58F10A2178E8FEF5D
:102FE00084A385A386A387A380A780E89AE1A6E0AF
:102FF000B0E085AB96ABA7ABB0AF80EA96E8A1E0B6
:10300000B0E081AF92AFA3AFB4AF80E586AF17AEAB
:10301000AFEDB2E084E015968C93159786E1169695
:103020008C931697E4E8FAE0E4911796EC931797DF
:10303000E0E7FAE0E4911896EC93189740E85EE335
:1030400060E070E01D964D935D936D937C93509777
:103050000895789484B5826084BD84B5816084BD10
:1030600085B5826085BD85B5816085BD80916E0026
:10307000816080936E001092810080918100826057
:103080008093810080918100816080938100809194
:1030900080008160809380008091B1008460809383
:1030A000B1008091B00081608093B00080917A007F
:1030B000846080937A0080917A00826080937A00A5
:1030C00080917A00816080937A0080917A00806894
:1030D00080937A001092C100E0915202F091530265
:1030E00082E08083E0914E02F0914F021082E091E5
:1030F0005002F091510280E1808310925A02E091D7
:103100005602F091570286E08083E0915402F091DC
:103110005502808180618083E0915402F0915502D4
:10312000808188608083E0915402F0915502808113
:1031300080688083E0915402F091550280818F7DF8
:10314000808362E08091E4020E94FB052FB7F8942F
:1031500080913A0290913B02A0913C02B0913D02D5
:103160002FBF805D9740A109B1098093E802909339
:10317000E902A093EA02B093EB0287E38093F102A5
:1031800080911D0390911E03892B11F10E943A1426
:103190002091040330910503809102039091030371
:1031A000213231050CF04AC0B9016052710977FF34
:1031B00002C06F5F7F4F759567958357910997FDA3
:1031C000019600E210E023E730E04AE855E049C00C
:1031D0002091040330910503C901079697FD0796D6
:1031E000B3E095958795BA95E1F720910203309168
:1031F0000303AC01429FC001439F900D529F900D6D
:1032000011240E94EB1F90931E0380931D03892BB2
:1032100009F0BCCFCAE2DAE0FE016491662339F01E
:1032200082E492E00E9434082196892BA9F762E695
:1032300071E082E492E00E945C14FFCFB901605417
:10324000710977FF02C06F5F7F4F75956795825553
:10325000910997FD019600E410E022E530E04AE68E
:1032600057E0959587950E94880D82E08093200312
:1032700080911B0390911C03892B09F40DC18CE3F1
:1032800080931F03109234021092330210923F0277
:1032900010923E020E941F1182E997E09093320241
:1032A0008093310283E997E09093300280932F025C
:1032B0008091260387FD1EC061E00E94FB0561E04E
:1032C000809126030E94AF0561E070E080E090E00D
:1032D0000E94510660E0809126030E94AF056AE0DB
:1032E00070E080E090E00E94510661E0809126034A
:1032F0000E94AF0580911B0390911C03892B09F458
:103300008AC12091330330913403409135035091A9
:10331000360360E074E284EF90E00E94C31F205106
:1033200031094109510956954795379527952093BD
:10333000B80064E086E895E00E94CA126091040338
:1033400061508EEF92E00E947F1364E082E895E086
:103350000E94CA128091200360E1813009F064E18B
:103360008EEF92E00E947F1364E08EE795E00E946A
:10337000CA128FE880933B0380910203909103036C
:103380008038910509F05EC1809104039091050396
:103390008034910509F066C180912003813009F0E5
:1033A00074C18FE980933B03C2E16AED8EEF92E036
:1033B0000E947F136C2F8EEF92E00E947F1361E8D2
:1033C0008EEF92E00E947F1360913B038EEF92E0BC
:1033D0000E947F1369ED8EEF92E00E947F1380912F
:1033E000200362E2813009F061EF8EEF92E00E94EB
:1033F0007F1366E088E795E00E94CA1280911B0364
:1034000090911C03892B09F442C12091370330911C
:1034100038034091390350913A0360E074E284EF3D
:1034200090E00E94C31F205131094109510956956E
:103430004795379527952093B8000E943A1481E06C
:10344000809312038093130381E090E09093110323
:103450008093100390930F0380930E03812CA4E2BA
:103460009A2EA4EFAA2EB12C332433940E94830603
:10347000882359F08091E5028B3038F08D3008F4C4
:1034800010C18551823008F43DC1C12CD12CF0EC23
:10349000EF2EFFE7FF2E23C161E0809124030E94FD
:1034A000FB0561E0809125030E94FB0580912403C8
:1034B000082E000C990BFC01E459F54FE491F0E063
:1034C000EE0FFF1FEC5BF54F2591349130932C03E9
:1034D00020932B03FC01E058F54FE491E093310376
:1034E00080912503082E000C990BFC01E459F54F3F
:1034F000E491F0E0EE0FFF1FEC5BF54FA591B49166
:10350000B0932E03A0932D03FC01E058F54FE491F6
:10351000E09332038C91E82BEC9380911903909106
:103520001A03892B09F434C0CFB7F89480912E0286
:10353000811127C0E6E7FAE08491EAE8FAE0949185
:10354000E82FF0E0EE0FFF1FE65CF54FA591B49178
:10355000EC91E92321F461E08AE00E94AF0561E08B
:103560008AE00E94FB058CB580618CBD8CB58064BF
:103570008CBD61E08DE00E94FB0561E08BE00E9464
:10358000FB0580912E028F5F80932E02CFBF90CEDD
:1035900061E0809122030E94FB0561E0809123039A
:1035A0000E94FB0580912203082E000C990BFC0160
:1035B000E459F54FE491F0E0EE0FFF1FEC5BF54F9F
:1035C000259134913093280320932703FC01E05880
:1035D000F54FE491E0932F0380912303082E000C14
:1035E000990BFC01E459F54FE491F0E0EE0FFF1F59
:1035F000EC5BF54FA591B491B0932A03A0932903F6
:10360000FC01E058F54FE491E09330038C91E09594
:10361000E823EC934DCE8091190390911A03892BE6
:1036200031F080913C0390913D030E94F410E091B1
:103630002D03F0912E039081809132038095892390
:10364000808377CE8036910589F480910403909130
:103650000503409739F480912003813029F480E1FB
:1036600080933B03C2E0A1CE8FEAFACF803491056C
:10367000C9F78091040390910503809799F7809191
:103680002003813011F480E18DCE8FEC8BCEE09160
:103690002D03F0912E03808190913203892B80833A
:1036A000CCCE6091E00270E090E080E00E949C1E31
:1036B0002DEC3CEC4CEC5DE30E94511F2B013C01D6
:1036C0006091DF0270E090E080E00E949C1E9B0110
:1036D000AC01C301B2010E94881D6B017C010E94F4
:1036E0008306882341F08091E5028C3009F43EC1C5
:1036F000D8F48B3091F1412C512C70EC672E7FE780
:10370000772E55C06091DF027091E002762767271F
:10371000762790E080E00E949A1E2DEC3CEC4CEC69
:103720005DE30E94511FD9CF8551823020F7C091AF
:10373000E1026C2F70E0762F662766277F778091F5
:10374000E202682B90E080E00E949A1E2DEC3CEC97
:103750004CEC5DE30E94511F25C16091E10270E0D5
:1037600090E080E00E949A1E2B013C01C091E20291
:10377000C7FF0AC0AC019B0160E070E080E89FEBEE
:103780000E94871D2B013C01CF706C2F70E090E0F0
:1037900080E00E949C1E2DEC3CEC4CEC5DE30E9412
:1037A000511FA30192010E94881D2B013C010E9420
:1037B0003A1410920B0310920A0310920D03109208
:1037C0000C0365E671E08EEF92E00E945C1442E02B
:1037D000C301B2010E94B1146CE671E08EEF92E079
:1037E0000E945C1462E671E08EEF92E00E945C142D
:1037F0006FE671E08EEF92E00E945C1442E0C70138
:10380000B6010E94B1146AE771E08EEF92E00E9467
:103810005C1462E671E08EEF92E00E945C1480918D
:103820001B0390911C03892B09F4C5C0209133031D
:10383000309134034091350350913603C501B401F2
:103840000E94C31F205131094109510956954795DE
:10385000379527952093B80064E086E39AE00E94AC
:10386000CA1280910203909103038034910509F0FC
:10387000B9C060E28EEF92E00E947F136091020374
:10388000615E8EEF92E00E947F13209104033091DD
:103890000503C901079697FD079633E0959587952F
:1038A0003A95E1F72091020330910303829F800152
:1038B000839F100D929F100D1124C0911D03D09174
:1038C0001E0380911B0390911C030C0F1D1F00977A
:1038D00009F4C3C020911F0330924102209340029B
:1038E00010923F0210923E02DC01ED91FC9101909A
:1038F000F081E02D60E40995EE24E394F12C8091B1
:103900001B0390911C030C171D0709F474C0B0E24F
:10391000EB16F104D8F00E94E31180911B03909103
:103920001C0320911F033092410220934002109209
:103930003F0210923E02DC01ED91FC910190F0817A
:10394000E02D60E40995EE24E394F12C80911B03B3
:1039500090911C036991DC01ED91FC910190F08143
:10396000E02D0995BFEFEB1AFB0AC9CFC091E10228
:103970006C2F70E090E080E00E949A1E2B013C01C9
:103980006091E2026F7070E090E080E00E949C1E07
:103990002DEC3CEC4CEC5DE30E94511FA301920125
:1039A0000E94881D2B013C01C7FF01CF77FA70945C
:1039B00077F87094FCCE8091190390911A03892BAB
:1039C00031F080913C0390913D030E94F410E0910E
:1039D0002D03F0912E0390818091320380958923ED
:1039E00080833ACF60E08EEF92E00E947F13609177
:1039F0000203615046CF0E94E31180911B03909116
:103A00001C03892B09F46AC02091370330913803D5
:103A10004091390350913A03C501B4010E94C31F7C
:103A200020513109410951095695479537952795F8
:103A30002093B80060ED77E080E090E00E945106AE
:103A4000E0E0F0E0EF2B09F411CD0E94FE0788239F
:103A500009F40CCD0E94000009CDE0912B03F091F8
:103A60002C03808190913103892B80830C171D07D3
:103A700021F289912091190330911A03232B19F017
:103A80000E94ED10F3CF28E030E040E8E0912703FA
:103A9000F091280390912F03582F5423D9F050818F
:103AA000952B9083E0912903F0912A039081509106
:103AB0003003952B9083E0912903F0912A035081E4
:103AC000909130039095952390834695215031092C
:103AD000E9F6CCCF508190959523E3CFE0912D036B
:103AE000F0912E03808190913203892B8083A2CFA5
:103AF0008EE291E09093FF028093FE0280911D037D
:103B000090911E03009711F00C948720089550584F
:103B1000BB27AA270E949F1D0C94121F0E94041FFE
:103B200038F00E940B1F20F039F49F3F19F426F45F
:103B30000C94011F0EF4E095E7FB0C94FB1EE92F9B
:103B40000E94231F58F3BA1762077307840795076B
:103B500020F079F4A6F50C94451F0EF4E0950B2E99
:103B6000BA2FA02D0B01B90190010C01CA01A001CF
:103B70001124FF27591B99F0593F50F4503E68F12A
:103B80001A16F040A22F232F342F4427585FF3CF6B
:103B9000469537952795A795F0405395C9F77EF43C
:103BA0001F16BA0B620B730B840BBAF09150A1F085
:103BB000FF0FBB1F661F771F881FC2F70EC0BA0F0B
:103BC000621F731F841F48F4879577956795B79593
:103BD000F7959E3F08F0B0CF9395880F08F099278E
:103BE000EE0F9795879508950E94D71E08F481E0FF
:103BF00008950E940D1E0C94121F0E940B1F58F076
:103C00000E94041F40F029F45F3F29F00C94FB1E32
:103C100051110C94461F0C94011F0E94231F68F33E
:103C20009923B1F3552391F3951B550BBB27AA2775
:103C300062177307840738F09F5F5F4F220F331FAF
:103C4000441FAA1FA9F335D00E2E3AF0E0E832D077
:103C500091505040E695001CCAF72BD0FE2F29D07A
:103C6000660F771F881FBB1F261737074807AB074C
:103C7000B0E809F0BB0B802DBF01FF2793585F4FC1
:103C80003AF09E3F510578F00C94FB1E0C94461FB1
:103C90005F3FE4F3983ED4F3869577956795B795A3
:103CA000F7959F5FC9F7880F911D9695879597F9AE
:103CB0000895E1E0660F771F881FBB1F6217730727
:103CC0008407BA0720F0621B730B840BBA0BEE1F3C
:103CD00088F7E09508950E942B1F88F09F5798F071
:103CE000B92F9927B751B0F0E1F0660F771F881F01
:103CF000991F1AF0BA95C9F714C0B13091F00E941B
:103D0000451FB1E008950C94451F672F782F882731
:103D1000B85F39F0B93FCCF3869577956795B39541
:103D2000D9F73EF490958095709561957F4F8F4FB0
:103D30009F4F0895E89409C097FB3EF490958095B5
:103D4000709561957F4F8F4F9F4F9923A9F0F92F61
:103D500096E9BB279395F695879577956795B795DF
:103D6000F111F8CFFAF4BB0F11F460FF1BC06F5FC5
:103D70007F4F8F4F9F4F16C0882311F096E911C0D7
:103D8000772321F09EE8872F762F05C0662371F0F8
:103D900096E8862F70E060E02AF09A95660F771F0C
:103DA000881FDAF7880F9695879597F90895990FE8
:103DB0000008550FAA0BE0E8FEEF16161706E807F5
:103DC000F907C0F012161306E407F50798F0621B16
:103DD000730B840B950B39F40A2661F0232B242BEB
:103DE000252B21F408950A2609F4A140A6958FEF0A
:103DF000811D811D089597F99F6780E870E060E05C
:103E000008959FEF80EC089500240A941616170673
:103E100018060906089500240A94121613061406BB
:103E200005060895092E0394000C11F4882352F01E
:103E3000BB0F40F4BF2B11F460FF04C06F5F7F4FD6
:103E40008F4F9F4F089557FD9058440F551F59F0BD
:103E50005F3F71F04795880F97FB991F61F09F3F77
:103E600079F087950895121613061406551FF2CFA0
:103E70004695F1DF08C0161617061806991FF1CFF0
:103E800086957105610508940895E894BB27662717
:103E90007727CB0197F908950E94D71E08F48FEF7A
:103EA00008950E94641F0C94121F0E94041F38F092
:103EB0000E940B1F20F0952311F00C94FB1E0C9414
:103EC000011F11240C94461F0E94231F70F3959F1D
:103ED000C1F3950F50E0551F629FF001729FBB2701
:103EE000F00DB11D639FAA27F00DB11DAA1F649F9D
:103EF0006627B00DA11D661F829F2227B00DA11D50
:103F0000621F739FB00DA11D621F839FA00D611DD5
:103F1000221F749F3327A00D611D231F849F600DF6
:103F2000211D822F762F6A2F11249F5750409AF01F
:103F3000F1F088234AF0EE0FFF1FBB1F661F771FAB
:103F4000881F91505040A9F79E3F510580F00C9476
:103F5000FB1E0C94461F5F3FE4F3983ED4F3869516
:103F600077956795B795F795E7959F5FC1F7FE2B16
:103F7000880F911D9695879597F908950E94D71EF1
:103F8000880B990B0895A1E21A2EAA1BBB1BFD01F9
:103F90000DC0AA1FBB1FEE1FFF1FA217B307E40728
:103FA000F50720F0A21BB30BE40BF50B661F771F80
:103FB000881F991F1A9469F7609570958095909560
:103FC0009B01AC01BD01CF010895EE0FFF1F0590CD
:103FD000F491E02D09940F931F93CF93DF938230D8
:103FE000910510F482E090E0E0914003F0914103EC
:103FF00030E020E0B0E0A0E0309799F421153105E1
:1040000009F44AC0281B390B24303105D8F58A81C0
:104010009B816115710589F1FB0193838283FE0108
:1040200011C0408151810281138148175907E0F086
:104030004817590799F4109761F012960C9312974C
:1040400013961C933296CF01DF91CF911F910F9160
:1040500008950093400310934103F4CF21153105D7
:1040600051F04217530738F0A901DB019A01BD0155
:10407000DF01F801C1CFEF01F9CF909341038093A5
:104080004003CDCFFE01E20FF31F819391932250A5
:10409000310939832883D7CF20913E0330913F03E4
:1040A000232B41F4209102013091030130933F030F
:1040B00020933E032091000130910101211531052B
:1040C00041F42DB73EB74091040150910501241BE6
:1040D000350BE0913E03F0913F03E217F307A0F4A4
:1040E0002E1B3F0B2817390778F0AC014E5F5F4F4E
:1040F0002417350748F04E0F5F1F50933F0340933E
:104100003E03819391939FCFF0E0E0E09CCFCF936B
:10411000DF930097E9F0FC01329713821282A0919D
:104120004003B0914103ED0130E020E01097A1F48D
:1041300020813181820F931F20913E0330913F03F4
:104140002817390709F061C0F0933F03E0933E035D
:10415000DF91CF910895EA01CE17DF07E8F54A8194
:104160005B819E0141155105B1F7E901FB83EA83AB
:1041700049915991C40FD51FEC17FD0761F4808157
:1041800091810296840F951FE9019983888382812A
:1041900093819B838A83F0E0E0E012968D919C915D
:1041A00013970097B9F52D913C911197CD01029687
:1041B000820F931F20913E0330913F032817390748
:1041C00039F6309751F51092410310924003B093A5
:1041D0003F03A0933E03BCCFD383C2834081518170
:1041E000840F951FC817D90761F44E5F5F4F888110
:1041F0009981480F591F518340838A819B81938302
:1042000082832115310509F0B0CFF0934103E0938B
:1042100040039ECFFD01DC01C0CF13821282D7CFB5
:1042200081E090E0F8940C941C21DC0101C06D93B6
:1042300041505040E0F7089515E0CBE4D5E004C0CC
:10424000FE010E94E51F2196CC34D107C9F7F894EE
:02425000FFCF9E
:104252000000420380000000000034089407C107F8
:104262008108F207D007E40700000000B4118711AB
:104272003714760580116D115E1100000000DC0A12
:1042820094073714F7103D107605810D590D750D01
:10429200690DE90D7605A208E113AD0FF60FA20C28
:1042A200850C0D0CAE0B6E616E00696E66006F764A
:1042B20066000D0A0054656D703A200020430048E4
:0E42C200756D69646974793A2000202500004A
:00000001FF
